:100000000C9480000C94A8000C94A8000C944F1938
:100010000C944F190C944F190C94A8000C9475185B
:100020000C94A8000C94A8000C94A8000C94C71978
:100030000C94A8000C94A8000C94A8000C94A800A0
:100040000C942B180C94A8000C941D190C94F71800
:100050000C94A8000C94A8000C94A8000C94A80080
:100060000C94A8000C94A800524F537365726961F8
:100070006C20696E69742C20646F6E652100524F8C
:100080005373657269616C20696E69742C207761A5
:1000900069742E2E2E005B737461727465645D004A
:1000A00000000000240027002A00000000080002D1
:1000B000010000030407000000000000000002002F
:1000C0000000002300260029000000000025002871
:1000D000002B0004040404040404040202020202CB
:1000E00002030303030303010204081020408001FC
:1000F000020408102001020408102000F61A1B2137
:1001000011241FBECFEFD8E0DEBFCDBF13E0A0E0CB
:10011000B1E0EEEAFCE402C005900D92AE3DB107FD
:10012000D9F727E0AEEDB3E001C01D92A137B207C9
:10013000E1F710E0CFE7D0E004C02197FE010E9474
:10014000D021CE37D107C9F70E94F21D0C944A2660
:100150000C9400004F925F926F927F928F929F92C9
:10016000AF92BF92CF92DF92EF92FF92CF93DF9345
:10017000EC01CC80DD80EE80FF8020E030E040E8C4
:100180005FEBC701B6010E945722812C912C38E405
:10019000A32E33ECB32E87FD1AC020E030E040E8F8
:1001A0005FE3C701B6010E94B623812C912C28E49D
:1001B000A22E23E4B22E181654F020E030E048E4DA
:1001C00053E4C701B6010E94BB234B015C01CA8CFA
:1001D000DB8CEC8CFD8C20E030E040E85FEBC7016D
:1001E000B6010E945722412C512C98E4692E92ECC2
:1001F000792E87FD15C020E030E040E85FE3C701BD
:10020000B6010E94B62318160CF46BC020E030E053
:1002100048E452E4C701B6010E94BB232B013C0114
:10022000A3019201C501B4010E94EB216B017C0185
:10023000A3019201C501B4010E94EA214B015C01B6
:1002400020E030E0A901C701B6010E9457228111C8
:100250000AC020E030E0A901C501B4010E94572284
:10026000882309F445C0A5019401C701B6010E9485
:10027000B62318160CF43FC0A5019401C701B601BE
:100280000E94572287FD3AC0A5019401C701B6011B
:100290000E94EB2120E030E0A9010E94572287FD57
:1002A00030C081E090E02091490430914A04281741
:1002B000390741F030930D0120930C0190934A04CB
:1002C00080934904DF91CF91FF90EF90DF90CF9022
:1002D000BF90AF909F908F907F906F905F904F9066
:1002E0000895412C512C88E4682E82E4782E98CF12
:1002F00090E080E0D8CF83E090E0D5CF84E090E03C
:10030000D2CF82E090E0CFCFFC018091C5069091E2
:10031000C606892B81F08091C7069091C806892B6B
:10032000F1F18091C9069091CA0622E030E0892B54
:1003300021F080E014C030E020E0D901AA0FBB1FFB
:10034000AB53B94FCF010A968D939C9329593F4FD8
:100350003787268780ED95E0918B808B81E0209117
:10036000CB063091CC06232BE9F02091CD063091BD
:10037000CE06232BD1F02091CF063091D006232B2F
:10038000B9F422E030E0D901AA0FBB1FA553B94F41
:10039000ED93FC932C593F4F33832283089521E042
:1003A00030E0CBCF30E020E0EECF21E030E0EBCF0B
:1003B00080E0089590E0FC01E655FF4F2491FC0198
:1003C000E951FF4F3491FC01ED52FF4FE491EE23D0
:1003D000C9F0222339F0233001F1A8F4213019F1BA
:1003E000223029F1F0E0EE0FFF1FE753FF4FA591F8
:1003F000B4918FB7F894EC91611126C030953E23EB
:100400003C938FBF08952730A9F02830C9F02430DD
:1004100049F7809180008F7D03C0809180008F77A5
:1004200080938000DFCF84B58F7784BDDBCF84B528
:100430008F7DFBCF8091B0008F778093B000D2CFBB
:100440008091B0008F7DF9CF3E2BDACFCF93DF9331
:1004500090E0FC01E951FF4F24918D529F4FFC0128
:1004600084918823D1F090E0880F991FFC01E05619
:10047000FF4FA591B491FC01E753FF4FC591D49173
:1004800061110EC09FB7F8948C91E22FE0958E23F6
:100490008C932881E223E8839FBFDF91CF91089559
:1004A0008FB7F894EC91E22BEC938FBFF6CFCF93FC
:1004B00090910E01891721F09F3F51F1CF9108953E
:1004C000EEEBF0E0C491C7FDF9CF61E00E94260297
:1004D000CC2309F495C0C23009F0AAC08091B100C4
:1004E00087608093B1008BE98093B3008AE090E04D
:1004F000A0E0B0E080935D0490935E04A0935F045D
:10050000B093600480917000826080937000D6CFB9
:1005100080930E01EEEBF0E0C491CF3F79F2C13051
:1005200039F148F0C23009F445C0C7FDC7CF61E0DA
:100530000E942602D0CF14BC15BC94B5926094BD25
:1005400095B5916095BD282F30E0F901ED52FF4F30
:10055000E491F0E0EE0FFF1FE753FF4F45915491F8
:10056000F901E951FF4FE491E0935C04C0E0ADCFA5
:100570001092800010928100909181009860909379
:10058000810090918100916090938100282F30E04C
:10059000F901ED52FF4FE491F0E0EE0FFF1FE7533A
:1005A000FF4F45915491F901E951FF4FE491E093D8
:1005B0005B048BCF1092B0001092B1009091B0000C
:1005C00092609093B0009091B10091609093B100CF
:1005D000282F30E0F901ED52FF4FE491F0E0EE0FEB
:1005E000FF1FE753FF4F4591549150935A04409396
:1005F0005904F901E951FF4FE491E093580465CFA4
:1006000085B5887F856085BD8BE987BD8AE090E0F0
:10061000A0E0B0E08093650490936604A093670423
:10062000B093680480916E00826080936E0046CF24
:10063000C130F1F480918100887F836080938100D4
:1006400083EC99E090938900809388008AE090E0A1
:10065000A0E0B0E08093610490936204A0936304EF
:10066000B093640480916F00826080936F0026CF06
:10067000C23021F0C11122CF83ECC7CF83EC34CF3D
:100680003FB7F8948091540490915504A09156047A
:10069000B091570426B5A89B05C02F3F19F00196CD
:1006A000A11DB11D3FBFBA2FA92F982F8827BC01CC
:1006B000CD01620F711D811D911D42E0660F771FF4
:1006C000881F991F4A95D1F708952FB7F894609124
:1006D00050047091510480915204909153042FBFA3
:1006E0000895AF92BF92CF92DF92EF92FF920F9355
:1006F0001F93CF93DF936C017B018B01040F151FB8
:10070000EB015E01AE18BF08C017D10759F069911F
:10071000D601ED91FC910190F081E02DC601099583
:10072000892B79F7C501DF91CF911F910F91FF9030
:10073000EF90DF90CF90BF90AF900895FC01538D64
:10074000448D252F30E0842F90E0821B930B5417AB
:1007500010F0CF96089501970895FC01918D828D38
:10076000981761F0A28DAE0FBF2FB11D5D968C91D1
:10077000928D9F5F9F73928F90E008958FEF9FEF10
:100780000895FC01918D828D981731F0828DE80FCC
:10079000F11D858D90E008958FEF9FEF0895FC0186
:1007A000918D228D892F90E0805C9F4F821B910953
:1007B0008F739927089589E694E00E94CF0321E082
:1007C000892B09F420E0822F089580E090E0892BA6
:1007D00029F00E94DB0381110C9400000895FC01B4
:1007E000A48DA80FB92FB11DA35ABF4F2C91848D92
:1007F00090E001968F739927848FA689B7892C93EF
:10080000A089B1898C91837080648C93938D848D41
:10081000981306C00288F389E02D80818F7D808344
:100820000895EF92FF920F931F93CF93DF93EC0104
:1008300081E0888F9B8D8C8D98131AC0E889F98987
:10084000808185FF15C09FB7F894EE89FF8960838A
:10085000E889F98980818370806480839FBF81E00B
:1008600090E0DF91CF911F910F91FF90EF9008954D
:10087000F62E0B8D10E00F5F1F4F0F731127E02E28
:100880008C8D8E110CC00FB607FCFACFE889F98960
:10089000808185FFF5CFCE010E94EF03F1CFEB8D74
:1008A000EC0FFD2FF11DE35AFF4FF0829FB7F89434
:1008B0000B8FEA89FB8980818062CFCF0F931F93D2
:1008C000CF93DF938C01D0E0C0E0F801EC0FFD1F67
:1008D0006491662341F089E694E00E941104892B1B
:1008E00011F02196F2CF42E050E06CEF71E089E622
:1008F00094E00E9471038C0F9D1FDF91CF911F9197
:100900000F910895CF93DF93EC01888D8823B9F080
:10091000AA89BB89E889F9898C9185FD03C080810A
:1009200086FD0DC00FB607FCF7CF8C9185FFF2CF87
:10093000808185FFEDCFCE010E94EF03E9CFDF91EB
:10094000CF91089520914604309147042817390724
:1009500071F49091440480914504981741F0E0911E
:100960004404F0E0EC5FFB4F808190E008958FEF4E
:100970009FEF08950895EF92FF920F931F93CF93E7
:10098000DF93DC015C96ED90FC905D97E114F1043F
:1009900079F481E090E013969C938E93129790E007
:1009A00080E0DF91CF911F910F91FF90EF9008951C
:1009B0005196ED91FC91529750968C915097982FAB
:1009C00090950FB75E962C915E97122F127021FDB5
:1009D0006095F8942081112319F1282B2083E701D9
:1009E0002197F1F728E0462F50E0308160FF1AC0D0
:1009F000382B3083E7012197F1F7BA017595679598
:100A0000215089F7112381F08081892380830FBFD2
:100A10005C968D919C910197F1F781E090E0C1CFB8
:100A20002923DCCF3923E5CF9081892BEFCF20918B
:100A30004604309147042817390771F48091450422
:100A40002091440490E0805C9F4F821B910960E4F8
:100A500070E00E94BC21089590E080E0089520910C
:100A600046043091470428173907B9F4909144049B
:100A700080914504981789F0E0914404F0E0EC5F20
:100A8000FB4F80812091440430E02F5F3F4F2F7354
:100A900033272093440490E008958FEF9FEF08954B
:100AA00090E080E00895CF92DF92EF92FF92CF9393
:100AB000DF93EC01603282E07807CCF5653B71058D
:100AC00014F064EB70E0898128E830E0281B3109DC
:100AD00087FD3395220F331F220F331F6901330F18
:100AE000EE08FF088A8128E532E0281B310987FDDE
:100AF0003395220F331F220F331F032E000C440B9C
:100B0000550B2C193D094E095F09DB0177FF02C027
:100B1000B0E0A0E00E94672124EB30E040E050E02C
:100B20000E943D21C20ED31EE41EF51EB601E881CF
:100B3000EC3070F5298188E890E0821B910927FD4F
:100B40009395880F991F880F991F681779077CF074
:100B50002A8188E592E0821B910927FD9395880FF1
:100B6000991F880F991F681779070CF4CB0102971A
:100B7000880F991F4FB7F8942E2F30E0F901EE0F30
:100B8000FF1FE20FF31FE052FC4F928381834FBFA0
:100B9000DF91CF91FF90EF90DF90CF900895DF929B
:100BA000EF92FF920F931F93CF93DF93EC01888115
:100BB0009A89992361F0282F30E0F901EE0FFF1F89
:100BC000E20FF31FE052FC4F90819F7B90838C30AB
:100BD00008F06CC00D811E81EB80FC80DB8861E039
:100BE0008D2D0E9426028881282F30E0F901EE0F1A
:100BF000FF1FE20FF31FE052FC4F2D2D2F7390814A
:100C0000907C922B908320E232E02E193F0937FF2F
:100C100002C02D5F3F4F3595279535952795298340
:100C200020E639E0201B310B37FF02C02D5F3F4F1C
:100C300035952795359527952A832CE0622F0E94BC
:100C4000B021829FB001112430E020E0AB01420FBF
:100C5000531FFA01EE0FFF1FE40FF51FE052FC4F88
:100C6000908196FD16C02F5F3F4F2C30310571F7F4
:100C700081110FC01092800082E080938100109259
:100C8000850010928400B19A80916F0082608093F9
:100C90006F00E8818E2F90E0FC01EE0FFF1FE80F40
:100CA000F91FE052FC4F8081806480836F817885DA
:100CB000CE010E9453050E9465036A877B878C875B
:100CC0009D8781E08A8BDF91CF911F910F91FF90DB
:100CD000EF90DF900895CF93DF93EC0183E090E0F5
:100CE000998388838A819B81FC012389348937FF1A
:100CF0000E94CF058C819D81FC012389348937FDB9
:100D000004C0DF91CF910C94CF05DF91CF9108956E
:100D10008FEF91E0089580E292E00895FC0186A1B2
:100D200097A1089584E392E0089585E591E0089500
:100D300083E090E008950F931F93CF93DF93EC012E
:100D40008C01085F1F4FEC89FD89B8010696099553
:100D5000888999896E857F85DC01ED91FC910190F0
:100D6000F081E02DA801DF91CF911F910F9109949F
:100D7000855F9E4FFC01808108950F931F93CF9351
:100D8000DF93CDB7DEB72A970FB6F894DEBF0FBE5C
:100D9000CDBF8C018DE491E09A8389831B821C82F4
:100DA0001D821E821F82188619861A86D801ED912F
:100DB000FC910190F081E02DAE014F5F5F4F6AE042
:100DC00070E0C80109950E946503F80165A376A348
:100DD00087A390A72A960FB6F894DEBF0FBECDBFAB
:100DE000DF91CF911F910F910895AF92BF92CF9253
:100DF000DF92EF92FF920F931F93CF93DF9300D078
:100E000000D01F92CDB7DEB7643671054CF0FC01FF
:100E1000E55FFE4F2081F12CE12C222309F46EC006
:100E2000DA017B018C01BC0164567F4FED91FC918E
:100E30000190F081E02DCA010995680125E9C20EF3
:100E4000D11C2FEFD6012C93F801EA56FF4F2EEF5D
:100E5000208331968083319690833196292F280FF5
:100E6000209520833196E0821696FC9245E050E072
:100E700030E020E0DC011696A417B50734F061914C
:100E8000260F311D4F5F5F4FF7CF7C01B8E0EB0EAF
:100E9000F11C800F911FFC01E456FF4F2095208329
:100EA000E1E6EE16F10484F456010E5F1F4FC50112
:100EB0008C199D098E159F050CF5D5016D915D016D
:100EC000C8010E94BB04F3CF81E491E09A83898337
:100ED00083E08B8385E592E09D838C83D801ED913F
:100EE000FC910190F081E02DAE014F5F5F4F67E014
:100EF00070E0C8010995EE24EA94FE2CC7010F901A
:100F00000F900F900F900F90DF91CF911F910F9145
:100F1000FF90EF90DF90CF90BF90AF9008954F92E9
:100F20005F926F927F92AF92BF92CF92DF92EF92D9
:100F3000FF920F931F93CF93DF93CDB7DEB72E971A
:100F40000FB6F894DEBF0FBECDBF7C0185E391E004
:100F50009A8389831C821B828EEF91E09E838D830E
:100F600098878F839A8789871B861C861D861E8695
:100F700087010B501F4F67018BEFC80ED11C90E605
:100F8000492E512C612C712CD801ED91FC91309798
:100F9000A9F1848195819C838B83808191819E833B
:100FA0008D8382819381DC01ED91FC910480F58138
:100FB000E02D099598878F83D801ED91FC9182816E
:100FC0009381DC01ED91FC910680F781E02D09957C
:100FD0009A8789874B865C866D867E86D801ED91DF
:100FE000FC9160857185D701ED91FC910190F081B4
:100FF000E02DAE014F5F5F4FC70109950E5F1F4F98
:101000000C151D0509F66701B1E0CB0EDB1E80E66D
:10101000482E512C612C712CF801A081B1811097C0
:10102000E1F112968D919C9113979C838B8314967A
:101030008D919C9115979E838D83ED91FC911197D5
:101040000480F581E02DCD01099598878F83D80123
:101050008D919C91DC01ED91FC910680F781E02D52
:1010600009959A8789874B865C866D867E86D7012F
:10107000ED91FC91A080B180F80180819181DC012B
:10108000ED91FC910280F381E02D0995AE014F5F57
:101090005F4FBC01C701F50109950E5F1F4F0C158D
:1010A0001D0509F0B9CFF701E55FFE4F81E08083B0
:1010B0002E960FB6F894DEBF0FBECDBFDF91CF9155
:1010C0001F910F91FF90EF90DF90CF90BF90AF9066
:1010D0007F906F905F904F900895CF92DF92EF9244
:1010E000FF92DC011D921D921D921C921397FB0131
:1010F00030E020E0419150E0022E02C0440F551F25
:101100000A94E2F7052E000C660B770BCD90DD906C
:10111000ED90FC9013974C295D296E297F294D9302
:101120005D936D937C931397285F3F4F2032310579
:1011300009F7FF90EF90DF90CF900895FC01408376
:1011400051831282138208958EE892E0089585E11A
:1011500091E008958FEA92E0089580ED92E008957D
:101160004F925F926F927F928F929F92AF92BF92B7
:10117000EF92FF920F931F93CF93DF9300D000D095
:10118000CDB7DEB77C018B01FB018191BF01F70177
:101190008283CE0101960E946D0889819A81AB817C
:1011A000BC814C015D01F5E08F0E911CA11CB11CAE
:1011B000A8014C5F5F4FFA0125E030E02901712C56
:1011C000612C481459046A047B0428F461816193FA
:1011D0002F5F3F4FF3CFF801E80FF91F1482F7019B
:1011E0005483438305960F900F900F900F90DF91DB
:1011F000CF911F910F91FF90EF90BF90AF909F9074
:101200008F907F906F905F904F90089583EE92E063
:10121000089584E093E008954F925F926F927F92D9
:101220008F929F92AF92BF92CF92DF92EF92FF92F6
:101230000F931F93CF93DF93CDB7DEB72C970FB6E5
:10124000F894DEBF0FBECDBF7C018B01DB018C911A
:1012500090E0F7019383828311962C91922B9383D4
:1012600082836E5F7F4FCE0101960E946D08898058
:101270009A80AB80BC8024013501F6E04F0E511CF2
:10128000611C711C98012B5F3F4FF90186E090E0D3
:10129000AC0170E060E0441555056605770520F463
:1012A000418141930196F4CFB4016A5F7F4FF80109
:1012B000E80DF91D1582D70115963C932E931497CE
:1012C000600F711FCE0105960E946D08BAE08B0E6B
:1012D000911C4D805E806F807884C401092C000CC5
:1012E000AA0BBB0B5C016D01A40CB51CC61CD71C62
:1012F000F801E80DF91DAF01401B510B70E060E0F3
:101300004A155B056C057D0538F42191AF0142500B
:101310005109DA012C93EFCF480C591CB801640D28
:10132000751DFB0131971082C4010197800F911F39
:10133000F70197838683CE0109960E946D0892017A
:101340002C5F3F4F89849A84AB84BC84A901032E0F
:10135000000C660B770B480D591D6A1D7B1DF801AB
:10136000E20FF31FCF01801B910BB0E0A0E08417C8
:101370009507A607B70728F48191DF0112978C9390
:10138000F1CFC901880D991DF801E80FF91FDF01A0
:1013900011971C9221503109020F131FD701199682
:1013A0001C930E9318972181428150E070E060E019
:1013B000BA0155274427522B2081422B2381722BBF
:1013C000F701428753876487758704962C960FB67A
:1013D000F894DEBF0FBECDBFDF91CF911F910F916B
:1013E000FF90EF90DF90CF90BF90AF909F908F9045
:1013F0007F906F905F904F9008958DE193E00895F6
:101400008EE393E00895FC01DB014C9150E070E025
:1014100060E0428353836483758311968C911197A6
:10142000582B428353836483758312968C91129751
:10143000682B428353836483758313968C9113972F
:10144000782B428353836483758314964C9114974D
:1014500050E070E060E0468357836087718715969F
:101460008C911597582B4683578360877187169602
:101470008C911697682B46835783608771871796E0
:101480008C91782B468357836087718788E090E042
:101490000895DC01FB0112968C91129780831396BC
:1014A0008C911397818314968C911497828315964F
:1014B0008C911597838316968C9116978483179633
:1014C0008C911797858318968C9118978683199617
:1014D0008C91878388E090E0089590E080E0089503
:1014E0008CE493E008958DE693E0089583E893E01B
:1014F000089584EA93E00895FB014081518162815F
:101500007381FC01428353836483758384E090E09C
:101510000895FB01DC0112964C91129713963C91B1
:10152000139714962C91149715968C9140833183C0
:101530002283838384E090E00895CF92DF92EF923C
:10154000FF920F931F93DC01FB0113960C911397ED
:1015500010E030E020E084E0369527951795079558
:101560008A95D1F714964C91149750E070E060E0A2
:1015700094E0440F551F661F771F9A95D1F7042BEF
:10158000152B262B372B15969C911597492F50E03C
:1015900070E060E08CE0440F551F661F771F8A954E
:1015A000D1F7042B152B262B372B1696CC9016979C
:1015B000D12CF12CE12CB701A60194E1440F551F69
:1015C000661F771F9A95D1F744275527607F7727A5
:1015D000402B512B622B732B17960C9180E1089FA7
:1015E00090011124207F3770D701C60114E0B69511
:1015F000A795979587951A95D1F7822B932B8F3FB7
:1016000027E0920709F454C08F3724E0920708F0CE
:1016100052C0813823E09207C4F1805893404F3F75
:101620002FEF52076207710509F04AC010E030E061
:1016300020E0302F222711270027002711272227FB
:1016400030787695679557954795402B512B622BAF
:10165000732B092E000CAA0BBB0B17E1880F991FE7
:10166000AA1FBB1F1A95D1F7842B952BA62BB72B3E
:1016700080839183A283B38388E090E01F910F91D0
:10168000FF90EF90DF90CF900895893623E0920786
:1016900064F0716021E833E0281B390B04C07695B3
:1016A0006795579547952A95D2F790E080E0B7CF98
:1016B0008FEF90E0B4CF40E050E0BA018FEF90E0C0
:1016C0004F5F5F4F6F4F7F4FB1CFEF92FF920F93FE
:1016D0001F93CF93DF938C017B01BC016E5F7F4F23
:1016E000C7010E949D0AEC01B8016A5F7F4FC701E4
:1016F0008C0F9D1F0E949D0AC80FD91FB801665FFD
:101700007F4FC7018C0F9D1F0E949D0A8C0F9D1F4C
:10171000DF91CF911F910F91FF90EF900895EF927D
:10172000FF920F931F93CF93DF937C01EB010296FF
:101730000E94650B8C01BE01680F791FC70140969E
:101740000E94650B800F911FDF91CF911F910F9128
:10175000FF90EF9008950F931F93CF93DF938C0129
:10176000EC012696CE010E948F0BD8019496ED9144
:10177000FC91CE01DF91CF911F910F9109948F922F
:101780009F92AF92BF92CF92DF92EF92FF921F9300
:10179000CF93DF93EC016A017B01DB01CA0117E102
:1017A000B595A795979587951A95D1F799276F774E
:1017B00077278F3F910509F463C0009709F449C06A
:1017C00080589C4F188219821A82242F2295220F4A
:1017D000207E2B834A015B0123E0B694A794979463
:1017E00087942A95D1F78C824A015B013BE0B6943D
:1017F000A794979487943A95D1F78D82282F2295B4
:10180000207FE3E17695679557954795EA95D1F75F
:10181000422B4E83F4E095958795FA95E1F7182FC2
:101820001F7720E030E0A901C701B6010E945722CE
:1018300087FD29C01F8388E090E0DF91CF911F9141
:10184000FF90EF90DF90CF90BF90AF909F908F90E0
:101850000895411551056105710509F4B3CF440F91
:10186000551F661F771F80E893E067FD06C0440F91
:10187000551F661F771F0197F8CF6F777727A2CF85
:101880008FEF97E09FCF812F80688F83D4CFEF9227
:10189000FF920F931F93CF93DF937C018B01FC0189
:1018A0004281538164817581C8010E94BF0BEC01A4
:1018B000F7014681578160857185C8018C0F9D1F96
:1018C0000E94BF0BC80FD91FF7014285538564855D
:1018D0007585C8018C0F9D1F0E94BF0B8C0F9D1F2B
:1018E000DF91CF911F910F91FF90EF900895EF92AC
:1018F000FF920F931F93CF93DF937C01EB0102962E
:101900000E94470C8C01BE01680F791FC7014096E9
:101910000E94470C800F911FDF91CF911F910F9173
:10192000FF90EF900895FC01A281B3816D937C93A9
:10193000A481B5816D937C93A681B7816D937C93CF
:101940000084F185E02D71836083089563E070E089
:1019500086E095E00C94930C61E070E086E095E001
:101960000C94930C8F929F92AF92BF92CF92DF9282
:10197000EF92FF92CF93DF93EC018A819B810E94CB
:101980006B068C819D810E946B068E819F810E94D7
:101990006B06888599850E946B060E9440034B0167
:1019A0005C018CEDC82E85E0D82EE12CF12C0E9434
:1019B0004003681979098A099B09683E73408105CB
:1019C0009105A8F321E0C21AD108E108F10888EED8
:1019D000880E83E0981EA11CB11CC114D104E1043F
:1019E000F10429F7DF91CF91FF90EF90DF90CF9036
:1019F000BF90AF909F908F9008958F929F92AF92DB
:101A0000BF92CF92DF92EF92FF920F931F93CF93EB
:101A1000DF93DC011796ED91FC91E617F70709F4C7
:101A200051C069017A018B01EC010E9465038A842F
:101A30009B84AC84BD84681979098A099B096C155B
:101A40007D058E059F0570F480E0DF91CF911F9199
:101A50000F91FF90EF90DF90CF90BF90AF909F904D
:101A60008F9008950E9465036A877B878C879D8786
:101A70008F81988508171907F4F4019797FD03C023
:101A800098878F8302C018861F828A898823E1F293
:101A90000F811885053B1105B8F6898564EB70E068
:101AA000601B710B811101C0B801CE010E9453056A
:101AB00018870F83C9CF0196853B91050CF384EB02
:101AC00090E0DECF81E0C1CFFC0120813181032E87
:101AD000000C440B550B6DE270E0848195810C94F1
:101AE000FD0CFC0120813181032E000C440B550BB1
:101AF000655B7F4F848195810C94FD0C0F931F9340
:101B0000CF93DF93EC0100910201109103010130AA
:101B10001105A9F002301105C9F1809102019091DF
:101B2000030103970CF449C081E090E09093030116
:101B300080930201DF91CF911F910F91089570E082
:101B400060E08E819F810E94710D8823B1F170E069
:101B500060E0888599850E94710D882371F170E09D
:101B600060E08A819B810E94710D882331F170E0D1
:101B700060E08C819D810E94710D8823F1F00F5FE0
:101B80001F4F1093030100930201C7CF8E819F81E5
:101B90000E94640D882389F0888599850E94640DD0
:101BA000882359F08A819B810E94640D882329F043
:101BB0008C819D810E94640DE0CF80E0BBCFFC0151
:101BC00020813181032E000C440B550B67E870E037
:101BD000828193810C94FD0CFC0120813181032EC4
:101BE000000C440B550B6DE270E0828193810C94E4
:101BF000FD0C0F931F93CF93DF93EC010091000135
:101C00001091010101301105A9F00230110589F18F
:101C1000809100019091010103970CF441C081E093
:101C200090E09093010180930001DF91CF911F918B
:101C30000F9108958E819F810E94DF0D882381F18D
:101C4000888599850E94DF0D882351F18A819B81C7
:101C50000E94DF0D882321F18C819D810E94DF0D80
:101C60008823F1F00F5F1F4F1093010100930001D3
:101C7000CFCF8E819F810E94EC0D882389F08885CB
:101C800099850E94EC0D882359F08A819B810E94DE
:101C9000EC0D882329F08C819D810E94EC0DE0CF12
:101CA00080E0C3CFFC0120813181032E000C440B66
:101CB000550B6AE570E0828193810C94FD0C0F93C3
:101CC0001F93CF93DF9300910A0110910B01F8014C
:101CD0003197ED30F10508F050C0EC01EE58F14FAE
:101CE0000C94D0217F0ECF0EDD0EEB0EF00EFC0E0D
:101CF000240F2E0F350F5C0F650F6C0F8F0F8E8129
:101D00009F810E94640D882309F40EC18E819F81FA
:101D10000E94EC0D882309F407C1888599850E94EB
:101D2000640D882309F400C1888599850E94EC0D13
:101D3000882309F4F9C08A819B810E94640D88235D
:101D400009F4F2C08A819B810E94520E882309F413
:101D5000EBC08C819D810E94640D882309F4E4C04E
:101D60008C819D810E94520E882309F4DDC00F5F93
:101D70001F4F10930B0100930A0180910A0190916B
:101D80000B010E970CF4D0C081E090E090930B0112
:101D900080930A01DF91CF911F910F9108956DEF0C
:101DA0007FEF888599850E94710D882309F4BCC056
:101DB000888599850E94EC0DD7CF70E060E088851A
:101DC00099850E94710D882309F4AEC08885998594
:101DD0000E94DF0DC9CF888599850E94640DF3CFDD
:101DE00070E060E08E819F810E94710D882309F46C
:101DF0009BC08E819F81DECF70E060E08E819F81ED
:101E00000E94710D882309F48FC08E819F810E94EA
:101E1000DF0D882309F488C0888599850E94640DA8
:101E2000882309F481C0888599850E94520E8823F1
:101E300009F47AC08A819B810E94640D882309F489
:101E400073C08A819B81B6CF8E819F810E94640D71
:101E5000882309F469C08E819F81BACF70E060E069
:101E60008A819B810E94710DE9CF8E819F810E94A2
:101E7000640D882309F458C08E819F810E94520E00
:101E8000882309F451C070E060E08A819B810E9440
:101E9000710D882309F448C08A819B810E94DF0D5F
:101EA000882309F441C08C819D810E94640D8823A0
:101EB000D9F18C819D817ECF8A819B810E94640DA6
:101EC000882391F18A819B8183CF70E060E08C81CF
:101ED0009D810E94710DEBCF888599850E94640DCC
:101EE000882311F1888599850E94EC0D8823E1F003
:101EF0008A819B810E94640D8823B1F08A819B8135
:101F00000E94520E882381F070E060E08C819D81F8
:101F10000E94710D882341F08C819D8159CF8C8165
:101F20009D810E94640DF6CF80E034CF0F931F9304
:101F3000CF93DF930091080110910901F8013197C7
:101F4000ED30F10508F050C0EC01E755F04F0C946E
:101F5000D021B60F061014102210271033105B107A
:101F600065106C1093109C10A310C6108A819B8181
:101F70000E94640D882309F40EC18A819B810E940E
:101F8000DF0D882309F407C18C819D810E94640DB7
:101F9000882309F400C18C819D810E94DF0D882374
:101FA00009F4F9C08E819F810E94640D882309F491
:101FB000F2C08E819F810E94520E882309F4EBC0EB
:101FC000888599850E94640D882309F4E4C088857A
:101FD00099850E94520E882309F4DDC00F5F1F4FC0
:101FE0001093090100930801809108019091090163
:101FF0000E970CF4D0C081E090E09093090180939B
:102000000801DF91CF911F910F9108956DEF7FEF40
:102010008C819D810E94710D882309F4BCC08C8144
:102020009D810E94DF0DD7CF70E060E08C819D81A3
:102030000E94710D882309F4AEC08C819D810E949D
:10204000EC0DC9CF8C819D810E94640DF3CF70E0AF
:1020500060E08A819B810E94710D882309F49BC0F6
:102060008A819B81DECF70E060E08A819B810E9443
:10207000710D882309F48FC08A819B810E94EC0D29
:10208000882309F488C08C819D810E94640D882377
:1020900009F481C08C819D810E94520E882309F42D
:1020A0007AC08E819F810E94640D882309F473C0D9
:1020B0008E819F81B6CF8A819B810E94640D882387
:1020C00009F469C08A819B81BACF70E060E08E819B
:1020D0009F810E94710DE9CF8A819B810E94640DCE
:1020E000882309F458C08A819B810E94520E88235C
:1020F00009F451C070E060E08E819F810E94710DF3
:10210000882309F448C08E819F810E94EC0D8823AA
:1021100009F441C0888599850E94640D8823D9F10E
:10212000888599857ECF8E819F810E94640D88234A
:1021300091F18E819F8183CF70E060E088859985E1
:102140000E94710DEBCF8C819D810E94640D8823CC
:1021500011F18C819D810E94DF0D8823E1F08E8139
:102160009F810E94640D8823B1F08E819F810E941F
:10217000520E882381F070E060E0888599850E9486
:10218000710D882341F08885998559CF8885998577
:102190000E94640DF6CF80E034CF0F931F93CF934E
:1021A000DF930091060110910701F8013197EB30A0
:1021B000F105E8F4EC01E152FF4E0C94D021EA1055
:1021C000091117111C112A112D113E1149114C1121
:1021D00057115A118C819D810E94EC0D882309F4BE
:1021E0007AC00F5F1F4F1093070100930601809183
:1021F0000601909107010C970CF46DC081E090E00E
:102200009093070180930601DF91CF911F910F9169
:10221000089570E060E08A819B810E94710D88239F
:1022200009F459C08A819B810E94DF0DD7CF8A8132
:102230009B810E94640DD2CF70E060E08C819D8113
:102240000E94710D882309F446C08C819D810E94F3
:10225000520EC4CF8C819D81ECCF6DEF7FEF8E81CC
:102260009F810E94710D8823B1F1888599850E9414
:10227000DF0D882381F18A819B81E9CF70E060E0E6
:102280008E819F810E94710D882329F18E819F810B
:10229000A3CF8E819F81CDCF70E060E08885998546
:1022A0000E94710D8823B9F088859985D0CF8885E3
:1022B0009985BFCF6DEF7FEF8A819B810E94710D61
:1022C000882349F08C819D810E94EC0D882319F0B0
:1022D0008E819F81BCCF80E097CF0F931F93CF93C8
:1022E000DF930091040110910501F8013197EB3063
:1022F000F105E8F4EC01E158FE4E0C94D0218A116E
:10230000A911B711BC11CA11CD11DE11E911EC11DF
:10231000F711FA118E819F810E94EC0D882309F438
:102320007AC00F5F1F4F1093050100930401809145
:102330000401909105010C970CF46DC081E090E0D0
:102340009093050180930401DF91CF911F910F912C
:10235000089570E060E0888599850E94710D88235A
:1023600009F459C0888599850E94DF0DD7CF8885EB
:1023700099850E94640DD2CF70E060E08E819F81CC
:102380000E94710D882309F446C08E819F810E94AE
:10239000520EC4CF8E819F81ECCF6DEF7FEF8C8189
:1023A0009D810E94710D8823B1F18A819B810E94D9
:1023B000DF0D882381F188859985E9CF70E060E0A1
:1023C0008C819D810E94710D882329F18C819D81D2
:1023D000A3CF8C819D81CDCF70E060E08A819B810D
:1023E0000E94710D8823B9F08A819B81D0CF8A81A8
:1023F0009B81BFCF6DEF7FEF888599850E94710D1E
:10240000882349F08E819F810E94EC0D882319F06A
:102410008C819D81BCCF80E097CFCF93DF93EC017F
:102420008A819B810E94640D882351F18E819F8156
:102430000E94640D882321F1888599850E94640D8E
:102440008823F1F08C819D810E94640D8823C1F066
:102450008A819B810E94520E882391F08E819F81F8
:102460000E94520E882361F0888599850E94520E41
:10247000882331F08C819D81DF91CF910C94520E95
:1024800080E0DF91CF9108954F925F926F927F929B
:102490008F929F92AF92BF92CF92DF92EF92FF9274
:1024A0000F931F93CF93DF93EC017B018A81FB0194
:1024B00080838B8181838C8182838D818383349619
:1024C000412C512C320104E010E09F012F5F3F4F5F
:1024D000CF010296DF011396A8010C5F1F4F8A807F
:1024E0009B80AC80BD80481459046A047B04C8F406
:1024F000AA85BB85A40FB51F14974C9111962C91FA
:10250000119712969C91129713968C914083218378
:10251000928383838FEF481A580A680A780A3496A0
:10252000D4CF4C8540834D85F90140832E85FC0135
:1025300020838F858C93F701E00FF11F412C512CE4
:102540003201AF019F012F5F3F4FCF010296DF01A4
:1025500013960C5F1F4F8C849D84AE84BF844814F7
:1025600059046A047B04D8F4CF01841B950BAC8911
:10257000BD89A80FB91F3C9111962C911197129605
:102580009C91129713968C9130832183928383833D
:102590008FEF481A580A680A780A3496D3CF4E89C2
:1025A00040834F89F9014083288DFC012083898D68
:1025B0008C93412C512C32018E899F89A88DB98D25
:1025C000481659066A067B0680F55201AA0CBB1C08
:1025D000EC8DFD8DEA0DFB1DA081B181FD01019007
:1025E0000020E9F731976F01CA1ADB0AA60170E0F3
:1025F00060E0C701800F911F0E949E080C5F1F4F73
:102600008C8D9D8DA80EB91EF50160817181A6018A
:10261000C701800F911F0E94E5240C0D1D1DFFEFC7
:102620004F1A5F0A6F0A7F0AC7CFC801DF91CF91A7
:102630001F910F91FF90EF90DF90CF90BF90AF90E0
:102640009F908F907F906F905F904F900895EF9242
:10265000FF920F931F93CF93DF938C017B01DC01DB
:1026600012962C911297FB012193CF011396ED91B5
:10267000FC91EF0109900020E9F72197CE1BDF0BB9
:10268000AE0170E060E00E949E08D80113966D9143
:102690007C91AE01C70105960E94E524CE01059606
:1026A000DF91CF911F910F91FF90EF900895CF92FE
:1026B000DF92EF92FF920F931F93CF93DF936C0102
:1026C000EB01DC0112968C911297888313968C9102
:1026D000139789831496ED91FC91DF010D900020F2
:1026E000E9F78D01015011090E1B1F0BA80170E0C5
:1026F00060E0CE0102960E949E08F6016481758119
:10270000A801CE0106960E94E524C8010696F601AE
:10271000A681B781FD0101900020E9F731977F0183
:10272000EA1AFB0AA70170E060E08C0F9D1F0E946F
:102730009E08065F1F4FD60116966D917C91A701EA
:10274000CE01800F911F0E94E5240E0D1F1DF60182
:10275000A085B185FD0101900020E9F731977F0147
:10276000EA1AFB0AA70170E060E0CE01800F911F1A
:102770000E949E080C5F1F4FD60118966D917C91A8
:10278000A701CE01800F911F0E94E524C701800F91
:10279000911FF6016285438534852585C80FD91FB1
:1027A000688349833A832B830496DF91CF911F91ED
:1027B0000F91FF90EF90DF90CF9008952F923F926E
:1027C0004F925F926F927F928F929F92AF92BF9241
:1027D000CF92DF92EF92FF920F931F93CF93DF93ED
:1027E000CDB7DEB72E970FB6F894DEBF0FBECDBFC4
:1027F0008C016B01DB018D909D90AD90BC90FC0134
:1028000082819381A481B58188159905AA05BB05AC
:1028100070F4B401660F771F660F771F828593856A
:102820000E942824D8011B969C938E931A97F80136
:1028300082829382A482B582C60140E050E0BA0150
:10284000A4E0EA2EF12C98012A5F3F4FDC01159697
:10285000EC91159716964C901697512C712C612C73
:102860003201552444245E2A1496EC9114974E2A82
:102870001796EC917E2AD7011701E4E02E0E311C49
:1028800071010496F80182809380A480B580481578
:1028900059056A057B05A8F44682578260867186D1
:1028A0001497A284B384AA0DBB1DE4E0BE2EF901E7
:1028B00001900D92BA94E1F74F5F5F4F6F4F7F4FDA
:1028C000C5CF84859585A685B78584159505A6050C
:1028D000B70570F4B201660F771F660F771F848902
:1028E00095890E942824D80155969C938E935497DD
:1028F000F8014486558666867786C601820D931D4B
:10290000412C512C32011C019801205F3F4FDC010A
:1029100011966C91119712968C901297912CB12C64
:10292000A12C540199248824962A6C91862A139606
:102930006C91B62AB4E0EB0EF11CF8014485558584
:10294000668577854416550666067706C0F4808A44
:10295000918AA28AB38ABC0162197309A489B589D4
:10296000A60FB71F64E0F90101900D926A95E1F797
:10297000BFEF4B1A5B0A6B0A7B0A0496C8CF8689A5
:102980009789A08DB18D88159905AA05BB0560F4BE
:10299000B401660F771F848D958D0E942824D8017D
:1029A0005D969C938E935C97F801868A978AA08E99
:1029B000B18E412C512C32011801FAE12F0E311C3D
:1029C000F80186899789A08DB18D481659066A0647
:1029D0007B0608F05CC0B6016E0D7F1DCE0101962E
:1029E0000E946D0897012C5F3F4F3E872D8789809D
:1029F0009A80AB80BC80C901032E000CAA0BBB0BD4
:102A0000AC01BD01480D591D6A1D7B1D49875A87C0
:102A10006B877C87F901EC0DFD1D9F012C193D0989
:102A2000B90190E080E029853A854B855C85621785
:102A300073078407950728F42191DF0112972C93DF
:102A4000ECCFED84FE84E80CF91CF601EE0DFF1DC1
:102A5000319710828D859E8501978C0D9D1DD80123
:102A60005B969C938E935A97C201880F991F5C9630
:102A7000ED91FC91E80FF91FD1018D919C9191830B
:102A80008083BFEF4B1A5B0A6B0A7B0A99CFC701A1
:102A90002E960FB6F894DEBF0FBECDBFDF91CF915B
:102AA0001F910F91FF90EF90DF90CF90BF90AF906C
:102AB0009F908F907F906F905F904F903F902F905E
:102AC00008952F923F924F925F926F927F928F92D2
:102AD0009F92AF92BF92CF92DF92EF92FF920F93AD
:102AE0001F93CF93DF93CDB7DEB7A7970FB6F894B8
:102AF000DEBF0FBECDBF8C010E9465034B015C01A0
:102B00009801205F3E4F3A8B298BF901808191819A
:102B1000A281B381A5019401281B390B4A0B5B0BE1
:102B2000DA01C901893F9A42A105B10510F0359734
:102B30001082780141E0E40EF41ED7018D919C9142
:102B4000892B79F0F801EC5EFE4F80819181A281A2
:102B5000B38188159905AA05BB0518F4F701118200
:102B60001082712C1D8A98012E5F3F4F3D8F2C8F54
:102B7000A801475F5E4F5E874D87C8018B5F9E4F00
:102B8000988B8F87680195E3C90ED11CD801A55F8A
:102B9000BE4FBF8BAE8BF801E75EFE4FFF8FEE8F0F
:102BA0002A5E3E4F39A328A3465051095C874B87C4
:102BB000C801895F9E4F9C8B8B8B1996BBA3AAA3E0
:102BC000A50194012C5E3F4F4F4F5F4F2CA33DA3B7
:102BD0004EA35FA3F80181A992A9A3A9B4A9892B47
:102BE0008A2B8B2BD1F58C8D9D8D0E942F059C01FE
:102BF00097FF49C0F801E55FFE4F8081882301F10E
:102C00007801B4EFEB1ABEEFFB0AF70180819181E6
:102C1000A281B381A5019401281B390B4A0B5B0BE0
:102C2000DA01C901853C9940A105B10548F0C80108
:102C30000E94BD06D7018D929D92AD92BC921397D2
:102C40008CEF9FEF711017C1BD8990E080E0BB232E
:102C500009F411C18DEF9FEF0EC10E946503681941
:102C600079098A099B09D801D1962D913D914D9101
:102C70005C91D497261737074807590708F0B3CF58
:102C80008EEF9FEFF8C0ED85FE8580819181820FE8
:102C9000931F91838083D7014D915C9111974730A9
:102CA0005105F1F4EB89FC8980819181AC014F5F82
:102CB0005F4F51834083800F911FDC01D5962C9389
:102CC000EB85FC8580819181019791838083892B9D
:102CD00009F080CF88E090E0D7018D939C937ACF64
:102CE0004115510529F52F3F310589F481E090E028
:102CF000F701918380832CA13DA14EA15FA1AAA1E0
:102D0000BBA12D933D934D935C93139763CF0E948A
:102D10006503681979098A099B0969387341810536
:102D2000910508F457CFF801E55FFE4F1082A8CF58
:102D30004130510581F482E090E02E3F310581F170
:102D40001D921C92EE89FF898081811143CFC801B9
:102D50000E94BD063FCF4230510591F4AB85BC8542
:102D60002D933C93EB89FC891182108283E090E0E3
:102D7000D7018D939C93ED85FE85318320832ACFE7
:102D80004330510589F4322F2227AB85BC858D91C4
:102D90009C911197280F391F2D933C9384E090E06C
:102DA000F7019183808316CF4430510571F460E0C0
:102DB00071E00E94BC218F3F910519F485E090E0FD
:102DC0008BCFF7011182108205CF4530510571F488
:102DD000AF85B8892D933C9386E090E0F70191830D
:102DE0008083AD85BE852D933C93F4CE463051054E
:102DF000C9F4322F2227EF85F88980819181280F2D
:102E0000391F3183208387E090E011969C938E9345
:102E1000EB85FC8580819181892B09F0DBCE88E0F0
:102E200090E05BCF4830510509F0D4CE1D921C9242
:102E300060E071E00E94BC218F3F910509F0CACE8D
:102E4000AF85B889ED91FC91309771F5C8010E946A
:102E5000BD06C8010E948F07F801E45FFE4F808223
:102E60009182A282B382E989FA8980829182A282C8
:102E7000B3828FEF9FEFA7960FB6F894DEBF0FBE19
:102E8000CDBFDF91CF911F910F91FF90EF90DF9019
:102E9000CF90BF90AF909F908F907F906F905F90FA
:102EA0004F903F902F900895EA30F10509F0A7C0A8
:102EB0008DE491E09A8389831B821C821D821E828D
:102EC0001F82188619861A860E946503D801959676
:102ED0004D905D906D907C9098979B01AC0124196A
:102EE00035094609570929013A01B601CE01019673
:102EF0000E94030AC301B20128EE33E040E050E033
:102F00000E946F2129013A019B01AC018B819C81B8
:102F1000AD81BE81840D951DA61DB71D8B839C833D
:102F2000AD83BE8360E472E48FE090E00E94A02154
:102F30004F80588469847A84DC01CB01840D951D0F
:102F4000A61DB71D8F839887A987BA870E9465033E
:102F50004F80588469847A8436E3531A35E6630ACD
:102F600034EC730A28EE33E040E050E00E946F2119
:102F7000288F398F4A8F5B8F9B01AC0160E472E42C
:102F80008FE090E00E94A021A3019201261B370B45
:102F9000480B590BCA01B9012B803C804D805E80E3
:102FA00031E0231A310841085108288D398D4A8DA6
:102FB0005B8D221A330A440A550A20E03AEC4AE9AA
:102FC0005BE30E946F21220D331D441D551DD80166
:102FD00099962D933D934D935C939C97F80165A72B
:102FE00076A787A790AB0E946503A989BA896D93DC
:102FF0007D938D939C93139777247394EBCDE63058
:10300000F10551F4B6018E8D9F8D0E94DE1381E093
:10301000E8A1F9A18083DECDEB30F10531F4AE8972
:10302000BF891C92B1E0BD8BD5CDE456F109EE0FFE
:10303000FF1FE00FF11FE550FF4F80819181009746
:1030400009F4C8CDDC01ED91FC910190F081E02DF7
:10305000B6010995BFCD1F920F920FB60F921124A2
:103060002F933F938F939F93AF93BF93809150047F
:1030700090915104A0915204B091530430914F04A7
:1030800023E0230F2D3758F50196A11DB11D209384
:103090004F048093500490935104A0935204B09332
:1030A00053048091540490915504A0915604B0911A
:1030B00057040196A11DB11D8093540490935504AB
:1030C000A0935604B0935704BF91AF919F918F91F5
:1030D0003F912F910F900FBE0F901F90189526E8EB
:1030E000230F0296A11DB11DD2CF1F920F920FB6D2
:1030F0000F9211242F933F934F935F936F937F937E
:103100008F939F93AF93BF93EF93FF9380915D0451
:1031100090915E04A0915F04B0916004892B8A2B8A
:103120008B2BD1F190915804E0915904F0915A04FD
:1031300080818927808380915D0490915E04A091B5
:103140005F04B0916004181619061A061B069CF459
:1031500080915D0490915E04A0915F04B091600441
:103160000197A109B10980935D0490935E04A09337
:103170005F04B0936004FF91EF91BF91AF919F9175
:103180008F917F916F915F914F913F912F910F9010
:103190000FBE0F901F90189580910E01EEEBF0E09E
:1031A000E4919FEF90930E01E13051F030F0E23066
:1031B00069F060E00E94DA01DECF10926E00F9CF74
:1031C00090916F009D7F90936F00F3CF909170006E
:1031D0009D7F9093700091E09093B0009091B1002A
:1031E000987F94609093B1001092B300E2CF1F9249
:1031F0000F920FB60F9211242F933F934F935F932B
:103200006F937F938F939F93AF93BF93EF93FF93AE
:1032100089E694E00E94EF03FF91EF91BF91AF9197
:103220009F918F917F916F915F914F913F912F91DE
:103230000F900FBE0F901F9018951F920F920FB610
:103240000F9211242F938F939F93EF93FF93E0910D
:103250007904F0917A048081E0917F04F0918004F8
:1032600082FD1BC09081809182048F5F8F732091BB
:103270008304821741F0E0918204F0E0E759FB4FAC
:10328000958F80938204FF91EF919F918F912F9161
:103290000F900FBE0F901F9018958081F4CF1F9252
:1032A0000F920FB60F9211242F933F934F935F937A
:1032B0006F937F938F939F93AF93BF93EF93FF93FE
:1032C000E0914604F0914704309749F0A685B78510
:1032D0008585968D91FF14C09C918923A1F4FF915F
:1032E000EF91BF91AF919F918F917F916F915F917E
:1032F0004F913F912F910F900FBE0F901F901895F7
:103300009C91892361F7A389B4899C9185898095D3
:1033100089238C93868997890197F1F7608D718D48
:10332000A685B785558538E020E0CB010197F1F7F8
:10333000822F90E095958795282F4C91452309F091
:103340002068315091F7868D81FD2095809145044C
:1033500090E001968F73992730914404381799F0C3
:10336000A0914504B0E0AC5FBB4F2C938093450423
:10337000828D938D0197F1F7A389B4898C919589FA
:10338000892B8C93ACCF868D8160868FF1CF1F9275
:103390000F920FB60F9211242F933F934F935F9389
:1033A0006F937F938F939F93AF93BF93CF93DF934D
:1033B000EF93FF938091DF03C091DE03D0E087FF9E
:1033C00024C010928500109284008091DF038F5FEB
:1033D0008093DF038091DF03082E000C990B8C177C
:1033E0009D0724F48091DF038C30C4F18091840028
:1033F00090918500049680349C4908F47AC08091AD
:10340000840090918500049676C08091DF03082E99
:10341000000C990B8C179D07C4F6E091DF038E2FEB
:10342000EE0F990BFC01EE0FFF1FE80FF91FE052A2
:10343000FC4F808186FFC9CFE091DF038E2FEE0F16
:10344000990BFC01EE0FFF1FE80FF91FE052FC4F34
:10345000808160E08F730E94DA01B7CF20918400F1
:1034600030918500E091DF038E2FEE0F990BFC0168
:10347000EE0FFF1FE80FF91FE052FC4F8181928190
:10348000820F931F9093890080938800E091DF035F
:103490008E2FEE0F990BFC01EE0FFF1FE80FF91FA7
:1034A000E052FC4F808186FF11C0E091DF038E2F38
:1034B000EE0F990BFC01EE0FFF1FE80FF91FE05212
:1034C000FC4F808161E08F730E94DA01FF91EF91E0
:1034D000DF91CF91BF91AF919F918F917F916F912C
:1034E0005F914F913F912F910F900FBE0F901F90C2
:1034F000189580E49CE990938900809388008FEF71
:103500008093DF03E3CFCF92DF92EF92FF920F938E
:103510001F93E82FF92F05C0015011092109310926
:1035200061F1908196239417B9F305C001501109F8
:103530002109310911F1908196239413F7CFC12C01
:10354000D12CE12CF12C0AC08FEFC81AD80AE80A56
:10355000F80A0C151D052E053F0579F0808186239C
:10356000841791F36C2D7D2D8E2D9F2D1F910F9122
:10357000FF90EF90DF90CF90089560E070E080E0E2
:1035800090E01F910F91FF90EF90DF90CF90089502
:10359000FC018091DE038C3030F591E0980F909320
:1035A000DE03808390E0DC01AA0FBB1FA80FB91FC8
:1035B000A052BC4F88EB9BE012969C938E93119780
:1035C00084EF91E09483838380E699E096838583FA
:1035D0008AE590E0908787831186128A8FEF9FEFAC
:1035E000948B838B08958FEF8083EACFCF93DF9303
:1035F00010926C0410926B0488EE93E0A0E0B0E0AF
:1036000080936D0490936E04A0936F04B093700444
:1036100028E631E030936A042093690425EC30E019
:10362000309376042093750424EC30E030937804D2
:103630002093770420EC30E030937A0420937904CF
:1036400021EC30E030937C0420937B0422EC30E0CA
:1036500030937E0420937D0426EC30E03093800488
:1036600020937F04109282041092830410928404A9
:10367000109285042EE030E030936C0720936B07A6
:1036800024EF31E0309366072093650710926707B7
:10369000109268071092690710926A0725EB33E0D1
:1036A00030935C0720935B0725E637E030935E0795
:1036B00020935D07109264071092630728EE31E0B3
:1036C00030933407209333072EEA31E030933A07E2
:1036D0002093390722EA31E030933C0720933B07DF
:1036E00010923D0710923E0710923F07109240073C
:1036F000109241071092420710924307109244071C
:1037000010924507109246071092470710924807FB
:1037100030934A072093490710924B0710924C07A9
:1037200010924D0710924E0710924F0710925007BB
:10373000109251071092520710925307109254079B
:1037400010925507109256072AEA30E03093580736
:103750002093570721E030E030935A072093590710
:103760002EEB33E03093380720933707ECEDF1E090
:10377000F0931E07E0931D0760ED71E0709324073E
:103780006093230720ED31E030932607209325072F
:10379000C6ECD3E0D0932807C093270745E257E053
:1037A00050932A074093290742E050E05093300796
:1037B00040932F07D0932207C0932107C6EADCE08D
:1037C000D0933207C0933107F0930807E0930707BF
:1037D00070930E0760930D073093100720930F0727
:1037E00023ED33E030931207209311076FE077E069
:1037F000709314076093130750931A0740931907A7
:1038000030930C0720930B072CEA3CE030931C0705
:1038100020931B0728E931E03093D1052093D00590
:103820001092D5051092D4058093D6059093D705B4
:10383000A093D805B093D90586E891E09093D3057D
:103840008093D2051092E9051092E8051092EB05DD
:103850001092EA051092ED051092EC051092EF051A
:103860001092EE056091F0056E7F6D7F6093F0051C
:103870006695617081E068278CE00E94DA0161E062
:103880008CE00E942602E3EFF0E0E491E093E20591
:10389000EFEDF0E0E491F0E0EE0FFF1FE753FF4F94
:1038A000859194919093E4058093E30560E08DE029
:1038B0000E9426028091F00581FD04C061E08DE048
:1038C0000E94DA018DE08093DE05E4EFF0E0E49100
:1038D000E093DF05E0EEF0E0E491F0E0EE0FFF1F93
:1038E000E154FF4F859194919093E1058093E00519
:1038F00080E096E9A0E0B0E08093F1059093F205B6
:10390000A093F305B093F4051092F5051092F60517
:103910001092F7051092F8051092F9051092FA0529
:103920001092FB051092FC051092FD051092FE0509
:103930001092FF05109200061092010610920206E6
:10394000109203061092040680E6E5E0F6E0DF013F
:10395000982F1D929A95E9F7E5E6F6E0DF011D92B2
:103960008A95E9F786E0E5ECF6E0DF01982F1D92F5
:103970009A95E9F7EBECF6E0DF011D928A95E9F7FD
:103980001092D2061092D1061092D4061092D3064D
:103990001092D6061092D5061092D8061092D7062D
:1039A0001092DA061092D9061092DB061092DC060D
:1039B0001092DD061092DE061092DF061092E006ED
:1039C0001092E1061092E2061092E3061092E406CD
:1039D0001092E5061092E6061092E7061092E806AD
:1039E0008AE791E09093EA068093E9061092EB064D
:1039F0001092EC061092ED061092EE061092EF0671
:103A00001092F0061092F1061092F2061092F4064F
:103A10001092F3061092F5061092F6061092F70631
:103A20001092F8061092F9061092FA061092FB0610
:103A30001092FC061092FE061092FD061092FF06F0
:103A400010920007109201071092020710920407CB
:103A50001092030710920607109205078BEB95E072
:103A60000E94C81A8AE090E09093CF058093CE051B
:103A70001092C40586EA95E00E94C81A8BE090E097
:103A80009093BA058093B9051092AF0581E995E04E
:103A90000E94C81A87E090E09093A5058093A40542
:103AA00010929A058CE795E00E94C81A85E090E094
:103AB0009093900580938F05C1E0C093850587E6BC
:103AC00095E00E94C81A89E090E090937B0580936E
:103AD0007A051092700582E595E00E94C81A88E088
:103AE00090E09093660580936505C0935B058DE338
:103AF00095E00E94C81A86E090E09093510580936B
:103B000050051092460588E295E00E94C81A84E0AC
:103B100090E090933C0580933B051092310583E043
:103B200090E090932305809322052BEB35E03093B2
:103B300025052093240526EA35E0309327052093B8
:103B4000260590931D0580931C0521E935E03093EF
:103B50001F0520931E052CE735E0309321052093A7
:103B60002005909317058093160527E635E03093DE
:103B700019052093180522E535E030931B052093A5
:103B80001A0590931105809310058DE395E09093AD
:103B900013058093120588E295E0909315058093B4
:103BA00014058AEB91E0909307058093060582E265
:103BB00095E090930905809308058CE195E090933A
:103BC0000B0580930A0586E195E090930D0580939F
:103BD0000C0580E195E090930F0580930E05DF9131
:103BE000CF910895789484B5826084BD84B5816056
:103BF00084BD85B5826085BD85B5816085BD8091B8
:103C00006E00816080936E0010928100809181002F
:103C10008260809381008091810081608093810027
:103C2000809180008160809380008091B1008460E9
:103C30008093B1008091B00081608093B00080914A
:103C40007A00846080937A0080917A008260809309
:103C50007A0080917A00816080937A0080917A0066
:103C6000806880937A001092C10061E082E00E9437
:103C7000260260E083E00E942602E0917904F09140
:103C80007A0482E08083E0917504F09176041082DA
:103C9000E0917704F091780480E1808310928104B0
:103CA000E0917D04F0917E0486E08083E0917B04C6
:103CB000F0917C04808180618083E0917B04F091AD
:103CC0007C04808188608083E0917B04F0917C0497
:103CD000808180688083E0917B04F0917C04808106
:103CE0008F7D808386E095E00E94B20C86E095E0AF
:103CF0000E940D128823D1F38EE790E00E945E04AB
:103D00002091F1053091F2054091F3055091F405B1
:103D10001092ED051092EC051092EB051092EA0559
:103D20001092E9051092E80560E079E08DE390E0FB
:103D30000E943D216901A901C60103972430310584
:103D400010F481E090E09093EF058093EE05909160
:103D5000DE05963108F061C096013695279524312D
:103D6000310508F4F5C1235131093093E905209359
:103D7000E8059601255031094630510510F421E03F
:103D800030E03093EB052093EA059601220F331FB4
:103D90002C0D3D1D36952795369527952D303105EF
:103DA00008F4D9C12C5031093093ED052093EC056E
:103DB0002091680084E0983048F031E09E3008F4AB
:103DC00030E081E001C0880F3A95EAF7822B8093BA
:103DD00068002DE630E0983050F02BE630E09E3061
:103DE00030F02CE630E0963110F030E020E03093F7
:103DF000E6052093E505292F30E0983008F0AEC1A4
:103E000081E001C0880F9A95EAF78093E7058091D9
:103E1000EE059091EF050197F1F78091EC059091F7
:103E2000ED05892B49F1E0914604F091470485E0C6
:103E3000E23DF80709F1309739F0A389B4899C91E4
:103E40008589809589238C938091F0058E7F80935E
:103E5000F005109245041092440482ED95E0909391
:103E6000470480934604E091E505F091E6058081E2
:103E70009091E705892B80831092D2061092D1068B
:103E80001092D4061092D3061092D8061092D7063C
:103E90001092D6061092D5068091C5069091C6065E
:103EA000892B09F468C18091C7069091C806892BB7
:103EB00009F464C18091C9069091CA06892BB9F4AE
:103EC00082E090E0FC01EE0FFF1FEB53F94F2BE572
:103ED00037E03183208389599F4F90936007809307
:103EE0005F0780ED95E09093620780936107809172
:103EF000CB069091CC06892B09F443C18091CD0665
:103F00009091CE06892B09F43FC18091CF06909104
:103F1000D006892B89F482E090E0FC01EE0FFF1FB0
:103F2000E553F94F23E337E0318320838C599F4FCA
:103F300090933607809335078DE197E00E948401C6
:103F400087E097E00E94840180ED95E00E948F0752
:103F500088E690E00E945E0480916B070E94570201
:103F600086E990E00E945E0423E0E22EF12C33E229
:103F7000C32ED12C46ED242E40E0342E57E0A52E42
:103F8000B12C90E0892E90E0992E0E94650340901C
:103F90004B0450904C0460904D0470904E044616B3
:103FA00057066806790608F093C060E082E00E9438
:103FB000DA01C7010197F1F761E082E00E94DA01BE
:103FC000C6010197F1F760E082E00E94DA01EAEEB3
:103FD000F0E06491F1018491E82FF0E0EE0FFF1F13
:103FE000E154FF4F8591949100E41CE920E030E01A
:103FF000462F0E94831A611571058105910529F0EC
:104000006F5F7F4F8F4F9F4F9F700E94042320E070
:1040100030E048E652E40E945C2220E030E048ECC8
:1040200052E40E94BB230E94CE22072E000C880B74
:10403000990B0E94062320E030E048EC52E40E94F5
:104040005C222B013C0120E030E0A9010E94B62354
:104050001816BCF420E030E040E850E4C301B2019F
:104060000E94572218160CF492C080914904909136
:104070004A0490930D0180930C0110924A0410920F
:1040800049044092670750926807609269077092EE
:104090006A07809161079091620760915F07709154
:1040A0006007DC01ED91FC910190F081E02D45E687
:1040B00057E009950E946503645D7E4F8F4F9F4FC7
:1040C00060934B0470934C0480934D0490934E0482
:1040D00080ED95E00E946115C0914904D0914A0499
:1040E00081E090E0209711F090E080E020910C01B9
:1040F00030910D018217930759F486E095E00E94F4
:104100000D12882309F45FC0D0930D01C0930C01F8
:10411000209711F00E94650380914804882331F0B4
:1041200080916B070E94570210924804C930D10554
:1041300008F049C0FE01E156FF4D0C94D021DF206C
:10414000EF20F420F920FE2003210E211121162159
:1041500021E030E00ACE21E030E026CE9E3040F46F
:104160002850310981E001C0880F2A95EAF74DCE29
:104170002E503109F7CF90E080E0A4CE81E090E0AE
:10418000A1CE90E080E0C9CE81E090E0C6CE20E0F4
:1041900030E040EC50E4C301B2010E9457221816EF
:1041A0000CF46FCF8091490490914A0490930D01D3
:1041B00080930C01B0924A04A092490462CF86E039
:1041C00095E00E940D128114910409F4DECE0E9444
:1041D000DB03882309F4D9CE0E940000D2CE86E00A
:1041E00095E00E946D11EFCF86E095E00E94CD1022
:1041F000EACF86E095E00E945F0EE5CF86E095E08D
:104200000E94960FE0CF63E070E086E095E00E94A8
:10421000930C10924A0410924904D5CF61E070E0EB
:10422000F4CF86E095E00E947E0DCDCF86E095E04C
:104230000E94F90DC8CF88E991E09093D105809351
:10424000D00586E891E09093D3058093D2058091C4
:10425000460490914704825D954071F4E091E50534
:10426000F091E60590818091E70580958923808310
:1042700010924704109246040895052E97FB1EF4F1
:1042800000940E94542157FD07D00E946F2107FC23
:1042900003D04EF40C9454215095409530952195BF
:1042A0003F4F4F4F5F4F0895909580957095619562
:1042B0007F4F8F4F9F4F08950E949121A59F900D92
:1042C000B49F900DA49F800D911D11240895B7FFF8
:1042D0000C945C210E945C21821B930B0895A1E247
:1042E0001A2EAA1BBB1BFD010DC0AA1FBB1FEE1F70
:1042F000FF1FA217B307E407F50720F0A21BB30BBB
:10430000E40BF50B661F771F881F991F1A9469F736
:1043100060957095809590959B01AC01BD01CF0192
:104320000895A29FB001B39FC001A39F700D811D8E
:104330001124911DB29F700D811D1124911D0895AE
:10434000DB018F939F930E945C21BF91AF91A29F4D
:10435000800D911DA39F900DB29F900D1124089583
:10436000991B79E004C0991F961708F0961B881FC7
:104370007A95C9F78095089597FB072E16F4009457
:1043800007D077FD09D00E94D62107FC05D03EF466
:10439000909581959F4F0895709561957F4F0895F1
:1043A000EE0FFF1F0590F491E02D0994AA1BBB1B93
:1043B00051E107C0AA1FBB1FA617B70710F0A61B25
:1043C000B70B881F991F5A95A9F780959095BC0146
:1043D000CD0108955058BB27AA270E9402220C94B1
:1043E0007C230E946E2338F00E94752320F039F45C
:1043F0009F3F19F426F40C946B230EF4E095E7FB31
:104400000C946523E92F0E948D2358F3BA17620795
:1044100073078407950720F079F4A6F50C94AF2371
:104420000EF4E0950B2EBA2FA02D0B01B9019001CF
:104430000C01CA01A0011124FF27591B99F0593F13
:1044400050F4503E68F11A16F040A22F232F342F5B
:104450004427585FF3CF469537952795A795F040A9
:104460005395C9F77EF41F16BA0B620B730B840BBE
:10447000BAF09150A1F0FF0FBB1F661F771F881F76
:10448000C2F70EC0BA0F621F731F841F48F48795CE
:1044900077956795B795F7959E3F08F0B0CF9395C0
:1044A000880F08F09927EE0F9795879508950E9439
:1044B000412308F481E008950E9470220C947C232B
:1044C0000E94752358F00E946E2340F029F45F3F4C
:1044D00029F00C94652351110C94B0230C946B2398
:1044E0000E948D2368F39923B1F3552391F3951B13
:1044F000550BBB27AA2762177307840738F09F5F05
:104500005F4F220F331F441FAA1FA9F335D00E2E71
:104510003AF0E0E832D091505040E695001CCAF7DE
:104520002BD0FE2F29D0660F771F881FBB1F2617A1
:1045300037074807AB07B0E809F0BB0B802DBF0178
:10454000FF2793585F4F3AF09E3F510578F00C9447
:1045500065230C94B0235F3FE4F3983ED4F3869533
:1045600077956795B795F7959F5FC9F7880F911D68
:104570009695879597F90895E1E0660F771F881F54
:10458000BB1F621773078407BA0720F0621B730B07
:10459000840BBA0BEE1F88F7E09508950E94D52290
:1045A0006894B1110C94B02308950E94952388F06B
:1045B0009F5798F0B92F9927B751B0F0E1F0660FE7
:1045C000771F881F991F1AF0BA95C9F714C0B13028
:1045D00091F00E94AF23B1E008950C94AF23672FB0
:1045E000782F8827B85F39F0B93FCCF38695779557
:1045F0006795B395D9F73EF4909580957095619540
:104600007F4F8F4F9F4F0895E89409C097FB3EF46A
:1046100090958095709561957F4F8F4F9F4F99230F
:10462000A9F0F92F96E9BB279395F695879577958D
:104630006795B795F111F8CFFAF4BB0F11F460FF4D
:104640001BC06F5F7F4F8F4F9F4F16C0882311F0A5
:1046500096E911C0772321F09EE8872F762F05C0B9
:10466000662371F096E8862F70E060E02AF09A9554
:10467000660F771F881FDAF7880F9695879597F949
:104680000895990F0008550FAA0BE0E8FEEF1616E3
:104690001706E807F907C0F012161306E407F50736
:1046A00098F0621B730B840B950B39F40A2661F0AA
:1046B000232B242B252B21F408950A2609F4A1404D
:1046C000A6958FEF811D811D089597F99F6780E85A
:1046D00070E060E008959FEF80EC089500240A9454
:1046E0001616170618060906089500240A941216CD
:1046F0001306140605060895092E0394000C11F400
:10470000882352F0BB0F40F4BF2B11F460FF04C0AC
:104710006F5F7F4F8F4F9F4F089557FD9058440F05
:10472000551F59F05F3F71F04795880F97FB991F10
:1047300061F09F3F79F087950895121613061406CD
:10474000551FF2CF4695F1DF08C01616170618065A
:10475000991FF1CF86957105610508940895E89435
:10476000BB2766277727CB0197F908950E9441233D
:1047700008F48FEF08950E94CE230C947C230E94AE
:104780006E2338F00E94752320F0952311F00C94CD
:1047900065230C946B2311240C94B0230E948D2369
:1047A00070F3959FC1F3950F50E0551F629FF00184
:1047B000729FBB27F00DB11D639FAA27F00DB11D9D
:1047C000AA1F649F6627B00DA11D661F829F222726
:1047D000B00DA11D621F739FB00DA11D621F839FAD
:1047E000A00D611D221F749F3327A00D611D231F83
:1047F000849F600D211D822F762F6A2F11249F57D1
:1048000050409AF0F1F088234AF0EE0FFF1FBB1FD3
:10481000661F771F881F91505040A9F79E3F510592
:1048200080F00C9465230C94B0235F3FE4F3983E32
:10483000D4F3869577956795B795F795E7959F5F3C
:10484000C1F7FE2B880F911D9695879597F90895CE
:10485000B0E0A0E0EEE2F4E20C9415268C010097A3
:1048600051F4CB010E94EE248C01C801CDB7DEB714
:10487000E0E10C943126FC01E60FF71F9C01225069
:104880003109E217F30708F49DC0D901CD91DC91FD
:104890001197C617D70798F0C530D10530F3CE0170
:1048A00004978617970708F3C61BD70B2297C19367
:1048B000D1936D937C93CF010E948A25D6CF5B0163
:1048C000AC1ABD0A4C018C0E9D1EA0916F07B091D1
:1048D0007007512C412CF12CE12C109731F580916F
:1048E0006D0790916E078815990509F05CC0461612
:1048F000570608F058C080910F0190911001009761
:1049000041F48DB79EB74091130150911401841B5F
:10491000950BE817F90708F055C0F0936E07E09380
:104920006D07F90171836083A0CF8D919C911197E0
:1049300012966C90129713967C901397A815B90550
:1049400059F56C0142E0C40ED11CCA14DB0420F1FD
:10495000AC014A195B09DA011296159780F0628260
:10496000738251834083D9016D937C93E114F104E8
:1049700071F0D7011396FC93EE93129776CF22969F
:104980008C0F9D1FF90191838083F301EFCFF0938A
:104990007007E0936F0769CF4816590608F42C0199
:1049A0007D01D3019ACFCB010E94EE247C010097B8
:1049B00049F0AE01B8010E94E524C8010E948A2591
:1049C000870153CF10E000E050CFFB01DC0102C0B3
:1049D00001900D9241505040D8F708950F931F93C6
:1049E000CF93DF938230910510F482E090E0E09164
:1049F0006F07F091700730E020E0B0E0A0E0309762
:104A000099F42115310509F44AC0281B390B2430CB
:104A10003105D8F58A819B816115710589F1FB010A
:104A200093838283FE0111C04081518102811381F1
:104A300048175907E0F04817590799F4109761F0A3
:104A400012960C93129713961C933296CF01DF9116
:104A5000CF911F910F91089500936F0710937007E6
:104A6000F4CF2115310551F04217530738F0A90151
:104A7000DB019A01BD01DF01F801C1CFEF01F9CFE0
:104A80009093700780936F07CDCFFE01E20FF31F65
:104A9000819391932250310939832883D7CF209174
:104AA0006D0730916E07232B41F420911101309155
:104AB000120130936E0720936D0720910F01309102
:104AC00010012115310541F42DB73EB74091130176
:104AD00050911401241B350BE0916D07F0916E0786
:104AE000E217F307A0F42E1B3F0B2817390778F0C5
:104AF000AC014E5F5F4F2417350748F04E0F5F1F24
:104B000050936E0740936D07819391939FCFF0E090
:104B1000E0E09CCFCF93DF930097E9F0FC01329760
:104B200013821282A0916F07B0917007ED0130E0FF
:104B300020E01097A1F420813181820F931F2091F2
:104B40006D0730916E072817390709F061C0F0939F
:104B50006E07E0936D07DF91CF910895EA01CE17BC
:104B6000DF07E8F54A815B819E0141155105B1F7E8
:104B7000E901FB83EA8349915991C40FD51FEC17D2
:104B8000FD0761F4808191810296840F951FE901F0
:104B900099838883828193819B838A83F0E0E0E01C
:104BA00012968D919C9113970097B9F52D913C9198
:104BB0001197CD010296820F931F20916D073091BE
:104BC0006E072817390739F6309751F5109270079C
:104BD00010926F07B0936E07A0936D07BCCFD3837D
:104BE000C28340815181840F951FC817D90761F492
:104BF0004E5F5F4F88819981480F591F51834083D1
:104C00008A819B81938382832115310509F0B0CF7E
:104C1000F0937007E0936F079ECFFD01DC01C0CFDA
:104C200013821282D7CF2F923F924F925F926F9250
:104C30007F928F929F92AF92BF92CF92DF92EF922C
:104C4000FF920F931F93CF93DF93CDB7DEB7CA1BAD
:104C5000DB0B0FB6F894DEBF0FBECDBF09942A88D8
:104C6000398848885F846E847D848C849B84AA8480
:104C7000B984C884DF80EE80FD800C811B81AA810D
:104C8000B981CE0FD11D0FB6F894DEBF0FBECDBFD8
:104C9000ED01089510E0CFE7D0E004C0FE010E94CE
:0E4CA000D0212196C038D107C9F7F894FFCF74
:104CAE00010001000100010001000100FFFFFF00F3
:104CBE000071078000726F7373657269616C5F6D4E
:104CCE007367732F52657175657374506172616D80
:104CDE00000000000057130C090909060900000026
:104CEE00002713B008AD08AA0800000000490A0307
:104CFE000A000AFD097374645F737276732F456D33
:104D0E007074790000000000110471039E03820488
:104D1E00CF03AD03C103000000004412DE13A70849
:104D2E00A40800000000BB0471035005BA04170567
:104D3E002F05A20400000000F5066115B80600005C
:104D4E000000470C650B730A700A00000000770C18
:104D5E008F0B8B068806000000000D126D11CD1012
:104D6E005F0E960FF90D7E0DB20C930C0000000035
:104D7E006D0A6D0A95069206000000009B069806C5
:104D8E009506920600000000AB0B8E068B06880679
:104D9E0000000000890A7C0A790A760A0D0A003999
:104DAE00663139356638383132343666646661328A
:104DBE003739386431643365656263613834610054
:104DCE0067656F6D657472795F6D7367732F547756
:104DDE006973740064343164386364393866303012
:104DEE006232303465393830303939386563663877
:104DFE0034323765004D6573736167652066726F77
:104E0E006D206465766963652064726F7070656489
:104E1E003A206D657373616765206C6172676572A8
:104E2E00207468616E206275666665722E00396642
:104E3E00306539386264613635393831393836641F
:104E4E0064663533616661376134306534390031FB
:104E5E00316162643733316332353933333236314F
:104E6E006364363138336264313264363239350038
:104E7E00726F7373657269616C5F6D7367732F4CBC
:104E8E006F670030616435316638386663343438A4
:104E9E003932663863313036383430373736343657
:104EAE0030303500726F7373657269616C5F6D734C
:104EBE0067732F546F706963496E666F0063643752
:104ECE0031363663373463353532633331316662AA
:104EDE0063633266653561376263323839007374E5
:104EEE00645F6D7367732F54696D65003461383478
:104EFE00326236356634313330383464633262317F
:104F0E003066623438346561376631370067656FF5
:104F1E006D657472795F6D7367732F566563746F09
:104F2E007233003733666362663436623439313930
:104F3E00316536373239303865353038343261388C
:104F4E00336434007374645F6D7367732F466C6FD4
:104F5E00617433320064697374616E636500636DEE
:104F6E00645F76656C0073706565645F6E6F726DFD
:0E4F7E00616C0073706565645F66617374003A
:00000001FF
